{
  "contractName": "Adoption",
  "abi": [
    {
      "constant": false,
      "inputs": [
        {
          "name": "new_address",
          "type": "address"
        }
      ],
      "name": "upgrade",
      "outputs": [],
      "payable": false,
      "stateMutability": "nonpayable",
      "type": "function"
    },
    {
      "constant": true,
      "inputs": [],
      "name": "last_completed_migration",
      "outputs": [
        {
          "name": "",
          "type": "uint256"
        }
      ],
      "payable": false,
      "stateMutability": "view",
      "type": "function"
    },
    {
      "constant": false,
      "inputs": [],
      "name": "renounceOwnership",
      "outputs": [],
      "payable": false,
      "stateMutability": "nonpayable",
      "type": "function"
    },
    {
      "constant": true,
      "inputs": [],
      "name": "owner",
      "outputs": [
        {
          "name": "",
          "type": "address"
        }
      ],
      "payable": false,
      "stateMutability": "view",
      "type": "function"
    },
    {
      "constant": true,
      "inputs": [
        {
          "name": "",
          "type": "address"
        }
      ],
      "name": "ownerPetCount",
      "outputs": [
        {
          "name": "",
          "type": "uint256"
        }
      ],
      "payable": false,
      "stateMutability": "view",
      "type": "function"
    },
    {
      "constant": true,
      "inputs": [
        {
          "name": "",
          "type": "uint256"
        }
      ],
      "name": "petToOwner",
      "outputs": [
        {
          "name": "",
          "type": "address"
        }
      ],
      "payable": false,
      "stateMutability": "view",
      "type": "function"
    },
    {
      "constant": true,
      "inputs": [
        {
          "name": "",
          "type": "uint256"
        }
      ],
      "name": "pets",
      "outputs": [
        {
          "name": "name",
          "type": "string"
        },
        {
          "name": "breed",
          "type": "string"
        },
        {
          "name": "price",
          "type": "uint256"
        }
      ],
      "payable": false,
      "stateMutability": "view",
      "type": "function"
    },
    {
      "constant": false,
      "inputs": [
        {
          "name": "_newOwner",
          "type": "address"
        }
      ],
      "name": "transferOwnership",
      "outputs": [],
      "payable": false,
      "stateMutability": "nonpayable",
      "type": "function"
    },
    {
      "constant": false,
      "inputs": [
        {
          "name": "completed",
          "type": "uint256"
        }
      ],
      "name": "setCompleted",
      "outputs": [],
      "payable": false,
      "stateMutability": "nonpayable",
      "type": "function"
    },
    {
      "inputs": [],
      "payable": false,
      "stateMutability": "nonpayable",
      "type": "constructor"
    },
    {
      "anonymous": false,
      "inputs": [
        {
          "indexed": false,
          "name": "name",
          "type": "string"
        },
        {
          "indexed": false,
          "name": "breed",
          "type": "string"
        },
        {
          "indexed": false,
          "name": "price",
          "type": "uint256"
        }
      ],
      "name": "NewPetCreated",
      "type": "event"
    },
    {
      "anonymous": false,
      "inputs": [
        {
          "indexed": false,
          "name": "name",
          "type": "string"
        },
        {
          "indexed": false,
          "name": "newOwner",
          "type": "address"
        }
      ],
      "name": "PetAdopted",
      "type": "event"
    },
    {
      "anonymous": false,
      "inputs": [
        {
          "indexed": false,
          "name": "name",
          "type": "string"
        }
      ],
      "name": "PetReturned",
      "type": "event"
    },
    {
      "anonymous": false,
      "inputs": [
        {
          "indexed": true,
          "name": "previousOwner",
          "type": "address"
        }
      ],
      "name": "OwnershipRenounced",
      "type": "event"
    },
    {
      "anonymous": false,
      "inputs": [
        {
          "indexed": true,
          "name": "previousOwner",
          "type": "address"
        },
        {
          "indexed": true,
          "name": "newOwner",
          "type": "address"
        }
      ],
      "name": "OwnershipTransferred",
      "type": "event"
    },
    {
      "constant": true,
      "inputs": [
        {
          "name": "_petId",
          "type": "uint256"
        }
      ],
      "name": "getPetOwnerAddress",
      "outputs": [
        {
          "name": "",
          "type": "address"
        }
      ],
      "payable": false,
      "stateMutability": "view",
      "type": "function"
    },
    {
      "constant": false,
      "inputs": [
        {
          "name": "_name",
          "type": "string"
        },
        {
          "name": "_breed",
          "type": "string"
        },
        {
          "name": "_price",
          "type": "uint256"
        }
      ],
      "name": "createPet",
      "outputs": [
        {
          "name": "",
          "type": "uint256"
        }
      ],
      "payable": false,
      "stateMutability": "nonpayable",
      "type": "function"
    },
    {
      "constant": false,
      "inputs": [
        {
          "name": "_petId",
          "type": "uint256"
        }
      ],
      "name": "adopt",
      "outputs": [
        {
          "name": "",
          "type": "uint256"
        }
      ],
      "payable": false,
      "stateMutability": "nonpayable",
      "type": "function"
    },
    {
      "constant": false,
      "inputs": [
        {
          "name": "_petId",
          "type": "uint256"
        }
      ],
      "name": "returnPet",
      "outputs": [
        {
          "name": "",
          "type": "uint256"
        }
      ],
      "payable": false,
      "stateMutability": "nonpayable",
      "type": "function"
    },
    {
      "constant": true,
      "inputs": [],
      "name": "getTotalNumberOfPets",
      "outputs": [
        {
          "name": "",
          "type": "uint256"
        }
      ],
      "payable": false,
      "stateMutability": "view",
      "type": "function"
    },
    {
      "constant": true,
      "inputs": [
        {
          "name": "_index",
          "type": "uint256"
        }
      ],
      "name": "getPet",
      "outputs": [
        {
          "name": "",
          "type": "string"
        },
        {
          "name": "",
          "type": "string"
        },
        {
          "name": "",
          "type": "uint256"
        }
      ],
      "payable": false,
      "stateMutability": "view",
      "type": "function"
    }
  ],
  "bytecode": "0x60806040523480156200001157600080fd5b50336000806101000a81548173ffffffffffffffffffffffffffffffffffffffff021916908373ffffffffffffffffffffffffffffffffffffffff160217905550620000d96040805190810160405280600681526020017f4a61636b696500000000000000000000000000000000000000000000000000008152506040805190810160405280600381526020017f446f67000000000000000000000000000000000000000000000000000000000081525060646200027a640100000000026401000000009004565b50620001616040805190810160405280600481526020017f5461636f000000000000000000000000000000000000000000000000000000008152506040805190810160405280600381526020017f436174000000000000000000000000000000000000000000000000000000000081525060c86200027a640100000000026401000000009004565b50620001ea6040805190810160405280600381526020017f4a696d00000000000000000000000000000000000000000000000000000000008152506040805190810160405280600581526020017f536e616b6500000000000000000000000000000000000000000000000000000081525061012c6200027a640100000000026401000000009004565b50620002736040805190810160405280600481526020017f416c6578000000000000000000000000000000000000000000000000000000008152506040805190810160405280600681526020017f52616262697400000000000000000000000000000000000000000000000000008152506101906200027a640100000000026401000000009004565b5062000625565b6000806000809054906101000a900473ffffffffffffffffffffffffffffffffffffffff1673ffffffffffffffffffffffffffffffffffffffff163373ffffffffffffffffffffffffffffffffffffffff16141515620002d957600080fd5b60016002606060405190810160405280888152602001878152602001868152509080600181540180825580915050906001820390600052602060002090600302016000909192909190915060008201518160000190805190602001906200034292919062000576565b5060208201518160010190805190602001906200036192919062000576565b506040820151816002015550500390506000809054906101000a900473ffffffffffffffffffffffffffffffffffffffff166003600083815260200190815260200160002060006101000a81548173ffffffffffffffffffffffffffffffffffffffff021916908373ffffffffffffffffffffffffffffffffffffffff160217905550600460008060009054906101000a900473ffffffffffffffffffffffffffffffffffffffff1673ffffffffffffffffffffffffffffffffffffffff1673ffffffffffffffffffffffffffffffffffffffff168152602001908152602001600020600081548092919060010191905055507fa40f71d0f2e62118553226d1a7c0d5edf4ec0daa6a4740edf93edac41ae35260858585604051808060200180602001848152602001838103835286818151815260200191508051906020019080838360005b83811015620004c4578082015181840152602081019050620004a7565b50505050905090810190601f168015620004f25780820380516001836020036101000a031916815260200191505b50838103825285818151815260200191508051906020019080838360005b838110156200052d57808201518184015260208101905062000510565b50505050905090810190601f1680156200055b5780820380516001836020036101000a031916815260200191505b509550505050505060405180910390a1809150509392505050565b828054600181600116156101000203166002900490600052602060002090601f016020900481019282601f10620005b957805160ff1916838001178555620005ea565b82800160010185558215620005ea579182015b82811115620005e9578251825591602001919060010190620005cc565b5b509050620005f99190620005fd565b5090565b6200062291905b808211156200061e57600081600090555060010162000604565b5090565b90565b61170a80620006356000396000f3006080604052600436106100db576000357c0100000000000000000000000000000000000000000000000000000000900463ffffffff1680630900f010146100e057806340f103fe14610123578063445df0ac146101f057806359d551941461021b578063601a5aed146103345780636eb7aa17146103a1578063715018a6146103cc5780638588b2c5146103e35780638da5cb5b14610424578063bd06b5521461047b578063bdb92e8e146104d2578063c643104314610513578063cfb869bf14610580578063f2fde38b14610699578063fdacd576146106dc575b600080fd5b3480156100ec57600080fd5b50610121600480360381019080803573ffffffffffffffffffffffffffffffffffffffff169060200190929190505050610709565b005b34801561012f57600080fd5b506101da600480360381019080803590602001908201803590602001908080601f0160208091040260200160405190810160405280939291908181526020018383808284378201915050505050509192919290803590602001908201803590602001908080601f0160208091040260200160405190810160405280939291908181526020018383808284378201915050505050509192919290803590602001909291905050506107f6565b6040518082815260200191505060405180910390f35b3480156101fc57600080fd5b50610205610ae7565b6040518082815260200191505060405180910390f35b34801561022757600080fd5b5061024660048036038101908080359060200190929190505050610aed565b604051808060200180602001848152602001838103835286818151815260200191508051906020019080838360005b83811015610290578082015181840152602081019050610275565b50505050905090810190601f1680156102bd5780820380516001836020036101000a031916815260200191505b50838103825285818151815260200191508051906020019080838360005b838110156102f65780820151818401526020810190506102db565b50505050905090810190601f1680156103235780820380516001836020036101000a031916815260200191505b509550505050505060405180910390f35b34801561034057600080fd5b5061035f60048036038101908080359060200190929190505050610c96565b604051808273ffffffffffffffffffffffffffffffffffffffff1673ffffffffffffffffffffffffffffffffffffffff16815260200191505060405180910390f35b3480156103ad57600080fd5b506103b6610cd3565b6040518082815260200191505060405180910390f35b3480156103d857600080fd5b506103e1610ce0565b005b3480156103ef57600080fd5b5061040e60048036038101908080359060200190929190505050610de2565b6040518082815260200191505060405180910390f35b34801561043057600080fd5b506104396110a7565b604051808273ffffffffffffffffffffffffffffffffffffffff1673ffffffffffffffffffffffffffffffffffffffff16815260200191505060405180910390f35b34801561048757600080fd5b506104bc600480360381019080803573ffffffffffffffffffffffffffffffffffffffff1690602001909291905050506110cc565b6040518082815260200191505060405180910390f35b3480156104de57600080fd5b506104fd600480360381019080803590602001909291905050506110e4565b6040518082815260200191505060405180910390f35b34801561051f57600080fd5b5061053e600480360381019080803590602001909291905050506112b5565b604051808273ffffffffffffffffffffffffffffffffffffffff1673ffffffffffffffffffffffffffffffffffffffff16815260200191505060405180910390f35b34801561058c57600080fd5b506105ab600480360381019080803590602001909291905050506112e8565b604051808060200180602001848152602001838103835286818151815260200191508051906020019080838360005b838110156105f55780820151818401526020810190506105da565b50505050905090810190601f1680156106225780820380516001836020036101000a031916815260200191505b50838103825285818151815260200191508051906020019080838360005b8381101561065b578082015181840152602081019050610640565b50505050905090810190601f1680156106885780820380516001836020036101000a031916815260200191505b509550505050505060405180910390f35b3480156106a557600080fd5b506106da600480360381019080803573ffffffffffffffffffffffffffffffffffffffff169060200190929190505050611451565b005b3480156106e857600080fd5b50610707600480360381019080803590602001909291905050506114b8565b005b60008060009054906101000a900473ffffffffffffffffffffffffffffffffffffffff1673ffffffffffffffffffffffffffffffffffffffff163373ffffffffffffffffffffffffffffffffffffffff1614151561076657600080fd5b8190508073ffffffffffffffffffffffffffffffffffffffff1663fdacd5766001546040518263ffffffff167c010000000000000000000000000000000000000000000000000000000002815260040180828152602001915050600060405180830381600087803b1580156107da57600080fd5b505af11580156107ee573d6000803e3d6000fd5b505050505050565b6000806000809054906101000a900473ffffffffffffffffffffffffffffffffffffffff1673ffffffffffffffffffffffffffffffffffffffff163373ffffffffffffffffffffffffffffffffffffffff1614151561085457600080fd5b60016002606060405190810160405280888152602001878152602001868152509080600181540180825580915050906001820390600052602060002090600302016000909192909190915060008201518160000190805190602001906108bb929190611617565b5060208201518160010190805190602001906108d8929190611617565b506040820151816002015550500390506000809054906101000a900473ffffffffffffffffffffffffffffffffffffffff166003600083815260200190815260200160002060006101000a81548173ffffffffffffffffffffffffffffffffffffffff021916908373ffffffffffffffffffffffffffffffffffffffff160217905550600460008060009054906101000a900473ffffffffffffffffffffffffffffffffffffffff1673ffffffffffffffffffffffffffffffffffffffff1673ffffffffffffffffffffffffffffffffffffffff168152602001908152602001600020600081548092919060010191905055507fa40f71d0f2e62118553226d1a7c0d5edf4ec0daa6a4740edf93edac41ae35260858585604051808060200180602001848152602001838103835286818151815260200191508051906020019080838360005b83811015610a39578082015181840152602081019050610a1e565b50505050905090810190601f168015610a665780820380516001836020036101000a031916815260200191505b50838103825285818151815260200191508051906020019080838360005b83811015610a9f578082015181840152602081019050610a84565b50505050905090810190601f168015610acc5780820380516001836020036101000a031916815260200191505b509550505050505060405180910390a1809150509392505050565b60015481565b6060806000610afa611697565b600285815481101515610b0957fe5b906000526020600020906003020160606040519081016040529081600082018054600181600116156101000203166002900480601f016020809104026020016040519081016040528092919081815260200182805460018160011615610100020316600290048015610bbc5780601f10610b9157610100808354040283529160200191610bbc565b820191906000526020600020905b815481529060010190602001808311610b9f57829003601f168201915b50505050508152602001600182018054600181600116156101000203166002900480601f016020809104026020016040519081016040528092919081815260200182805460018160011615610100020316600290048015610c5e5780601f10610c3357610100808354040283529160200191610c5e565b820191906000526020600020905b815481529060010190602001808311610c4157829003601f168201915b505050505081526020016002820154815250509050806000015181602001518260400151829250819150935093509350509193909250565b60006003600083815260200190815260200160002060009054906101000a900473ffffffffffffffffffffffffffffffffffffffff169050919050565b6000600280549050905090565b6000809054906101000a900473ffffffffffffffffffffffffffffffffffffffff1673ffffffffffffffffffffffffffffffffffffffff163373ffffffffffffffffffffffffffffffffffffffff16141515610d3b57600080fd5b6000809054906101000a900473ffffffffffffffffffffffffffffffffffffffff1673ffffffffffffffffffffffffffffffffffffffff167ff8df31144d9c2f0f6b59d69b8b98abd5459d07f2742c4df920b25aae33c6482060405160405180910390a260008060006101000a81548173ffffffffffffffffffffffffffffffffffffffff021916908373ffffffffffffffffffffffffffffffffffffffff160217905550565b6000808210151515610df357600080fd5b6000809054906101000a900473ffffffffffffffffffffffffffffffffffffffff1673ffffffffffffffffffffffffffffffffffffffff166003600084815260200190815260200160002060009054906101000a900473ffffffffffffffffffffffffffffffffffffffff1673ffffffffffffffffffffffffffffffffffffffff16141515610e8157600080fd5b336003600084815260200190815260200160002060006101000a81548173ffffffffffffffffffffffffffffffffffffffff021916908373ffffffffffffffffffffffffffffffffffffffff160217905550600460003373ffffffffffffffffffffffffffffffffffffffff1673ffffffffffffffffffffffffffffffffffffffff16815260200190815260200160002060008154809291906001019190505550600460008060009054906101000a900473ffffffffffffffffffffffffffffffffffffffff1673ffffffffffffffffffffffffffffffffffffffff1673ffffffffffffffffffffffffffffffffffffffff16815260200190815260200160002060008154809291906001900391905055507fa3f57eb5f8389189fe63b89447c5f2903f0958824e9e480410fdd19a7496ae32600283815481101515610fc357fe5b90600052602060002090600302016000013360405180806020018373ffffffffffffffffffffffffffffffffffffffff1673ffffffffffffffffffffffffffffffffffffffff1681526020018281038252848181546001816001161561010002031660029004815260200191508054600181600116156101000203166002900480156110905780601f1061106557610100808354040283529160200191611090565b820191906000526020600020905b81548152906001019060200180831161107357829003601f168201915b5050935050505060405180910390a1819050919050565b6000809054906101000a900473ffffffffffffffffffffffffffffffffffffffff1681565b60046020528060005260406000206000915090505481565b60008082101515156110f557600080fd5b3373ffffffffffffffffffffffffffffffffffffffff166003600084815260200190815260200160002060009054906101000a900473ffffffffffffffffffffffffffffffffffffffff1673ffffffffffffffffffffffffffffffffffffffff1614151561116257600080fd5b6000809054906101000a900473ffffffffffffffffffffffffffffffffffffffff166003600084815260200190815260200160002060006101000a81548173ffffffffffffffffffffffffffffffffffffffff021916908373ffffffffffffffffffffffffffffffffffffffff1602179055507fb33a7873d86a32e47e7d1427b80c1858a3dc9df82a6e12ca327cfb571a90e43a60028381548110151561120557fe5b9060005260206000209060030201600001604051808060200182810382528381815460018160011615610100020316600290048152602001915080546001816001161561010002031660029004801561129f5780601f106112745761010080835404028352916020019161129f565b820191906000526020600020905b81548152906001019060200180831161128257829003601f168201915b50509250505060405180910390a1819050919050565b60036020528060005260406000206000915054906101000a900473ffffffffffffffffffffffffffffffffffffffff1681565b6002818154811015156112f757fe5b9060005260206000209060030201600091509050806000018054600181600116156101000203166002900480601f0160208091040260200160405190810160405280929190818152602001828054600181600116156101000203166002900480156113a35780601f10611378576101008083540402835291602001916113a3565b820191906000526020600020905b81548152906001019060200180831161138657829003601f168201915b505050505090806001018054600181600116156101000203166002900480601f0160208091040260200160405190810160405280929190818152602001828054600181600116156101000203166002900480156114415780601f1061141657610100808354040283529160200191611441565b820191906000526020600020905b81548152906001019060200180831161142457829003601f168201915b5050505050908060020154905083565b6000809054906101000a900473ffffffffffffffffffffffffffffffffffffffff1673ffffffffffffffffffffffffffffffffffffffff163373ffffffffffffffffffffffffffffffffffffffff161415156114ac57600080fd5b6114b58161151d565b50565b6000809054906101000a900473ffffffffffffffffffffffffffffffffffffffff1673ffffffffffffffffffffffffffffffffffffffff163373ffffffffffffffffffffffffffffffffffffffff1614151561151357600080fd5b8060018190555050565b600073ffffffffffffffffffffffffffffffffffffffff168173ffffffffffffffffffffffffffffffffffffffff161415151561155957600080fd5b8073ffffffffffffffffffffffffffffffffffffffff166000809054906101000a900473ffffffffffffffffffffffffffffffffffffffff1673ffffffffffffffffffffffffffffffffffffffff167f8be0079c531659141344cd1fd0a4f28419497f9722a3daafe3b4186f6b6457e060405160405180910390a3806000806101000a81548173ffffffffffffffffffffffffffffffffffffffff021916908373ffffffffffffffffffffffffffffffffffffffff16021790555050565b828054600181600116156101000203166002900490600052602060002090601f016020900481019282601f1061165857805160ff1916838001178555611686565b82800160010185558215611686579182015b8281111561168557825182559160200191906001019061166a565b5b50905061169391906116b9565b5090565b6060604051908101604052806060815260200160608152602001600081525090565b6116db91905b808211156116d75760008160009055506001016116bf565b5090565b905600a165627a7a7230582099f7f9e72124cf8d1352a38d5b1ad5f662a4922341f7a58958334399161a46090029",
  "source": "pragma solidity ^0.4.17;\n\nimport './Migrations.sol';\n\ncontract Adoption is Migrations {\n\n    event NewPetCreated(string name, string breed, uint price);\n    event PetAdopted(string name, address newOwner);\n    event PetReturned(string name);\n\n    struct Pet {\n        string name;\n        string breed;\n        uint price;\n    }\n\n    Pet[] public pets;\n    mapping (uint => address) public petToOwner;\n    mapping (address => uint) public ownerPetCount;\n\n    constructor() public {\n        //Populate Pet Store\n        createPet('Jackie', 'Dog', 100);\n        createPet('Taco', 'Cat', 200);\n        createPet('Jim', 'Snake', 300);\n        createPet('Alex', 'Rabbit', 400);\n\n    }\n\n    function getPetOwnerAddress( uint _petId) public view returns (address) {\n        return petToOwner[_petId];\n    }\n\n    function createPet(string _name, string _breed, uint _price) public onlyOwner returns (uint) {\n        uint _petId = pets.push(Pet(_name, _breed, _price)) - 1;\n        petToOwner[_petId] = owner;\n        ownerPetCount[owner]++;\n        emit NewPetCreated(_name, _breed, _price);\n        return _petId;\n    }\n\n    function adopt(uint _petId) public returns (uint) {\n        require(_petId >= 0);\n        require(petToOwner[_petId] == owner);\n\n        petToOwner[_petId] = msg.sender;\n        ownerPetCount[msg.sender]++;\n        ownerPetCount[owner]--;\n        emit PetAdopted(pets[_petId].name, msg.sender);\n        return _petId;\n    }\n\n    function returnPet(uint _petId) public returns (uint) {\n        require( _petId >= 0);\n        require( petToOwner[_petId] == msg.sender );\n        petToOwner[_petId] = owner;\n        emit PetReturned(pets[_petId].name);\n        return _petId;\n    }\n\n    function getTotalNumberOfPets() public view returns (uint) {\n        return pets.length;\n    }\n\n    function getPet(uint _index) public view returns (string, string, uint) {\n        Pet memory pet = pets[_index];\n        return (pet.name, pet.breed, pet.price);\n    }\n}\n",
  "sourcePath": "/Users/rhome/Documents/pet-shop-react/contracts/Adoption.sol",
  "compiler": {
    "name": "solc",
    "version": "0.4.24+commit.e67f0147.Emscripten.clang"
  },
  "schemaVersion": "2.0.1",
  "updatedAt": "2018-08-09T20:02:18.363Z"
}