{
  "contractName": "Adoption",
  "abi": [
    {
      "constant": true,
      "inputs": [
        {
          "name": "",
          "type": "uint256"
        }
      ],
      "name": "adopters",
      "outputs": [
        {
          "name": "",
          "type": "address"
        }
      ],
      "payable": false,
      "stateMutability": "view",
      "type": "function"
    },
    {
      "constant": true,
      "inputs": [],
      "name": "STORE_WALLET",
      "outputs": [
        {
          "name": "",
          "type": "address"
        }
      ],
      "payable": false,
      "stateMutability": "view",
      "type": "function"
    },
    {
      "constant": false,
      "inputs": [
        {
          "name": "petId",
          "type": "uint256"
        }
      ],
      "name": "adopt",
      "outputs": [
        {
          "name": "",
          "type": "uint256"
        }
      ],
      "payable": false,
      "stateMutability": "nonpayable",
      "type": "function"
    },
    {
      "constant": true,
      "inputs": [],
      "name": "getAdopters",
      "outputs": [
        {
          "name": "",
          "type": "address[16]"
        }
      ],
      "payable": false,
      "stateMutability": "view",
      "type": "function"
    },
    {
      "constant": true,
      "inputs": [
        {
          "name": "_petId",
          "type": "uint256"
        }
      ],
      "name": "getPetOwnerAddress",
      "outputs": [
        {
          "name": "",
          "type": "address"
        }
      ],
      "payable": false,
      "stateMutability": "view",
      "type": "function"
    },
    {
      "constant": false,
      "inputs": [
        {
          "name": "petId",
          "type": "uint256"
        }
      ],
      "name": "returnPet",
      "outputs": [
        {
          "name": "",
          "type": "uint256"
        }
      ],
      "payable": false,
      "stateMutability": "nonpayable",
      "type": "function"
    }
  ],
  "bytecode": "0x608060405234801561001057600080fd5b5061051b806100206000396000f300608060405260043610610078576000357c0100000000000000000000000000000000000000000000000000000000900463ffffffff1680633de4eb171461007d57806343ae80d3146100d0578063601a5aed1461013d5780638588b2c5146101aa578063b318cbf1146101eb578063bdb92e8e14610242575b600080fd5b34801561008957600080fd5b50610092610283565b6040518082601060200280838360005b838110156100bd5780820151818401526020810190506100a2565b5050505090500191505060405180910390f35b3480156100dc57600080fd5b506100fb60048036038101908080359060200190929190505050610304565b604051808273ffffffffffffffffffffffffffffffffffffffff1673ffffffffffffffffffffffffffffffffffffffff16815260200191505060405180910390f35b34801561014957600080fd5b5061016860048036038101908080359060200190929190505050610339565b604051808273ffffffffffffffffffffffffffffffffffffffff1673ffffffffffffffffffffffffffffffffffffffff16815260200191505060405180910390f35b3480156101b657600080fd5b506101d560048036038101908080359060200190929190505050610372565b6040518082815260200191505060405180910390f35b3480156101f757600080fd5b506102006103e7565b604051808273ffffffffffffffffffffffffffffffffffffffff1673ffffffffffffffffffffffffffffffffffffffff16815260200191505060405180910390f35b34801561024e57600080fd5b5061026d600480360381019080803590602001909291905050506103ec565b6040518082815260200191505060405180910390f35b61028b6104cb565b60006010806020026040519081016040528092919082601080156102fa576020028201915b8160009054906101000a900473ffffffffffffffffffffffffffffffffffffffff1673ffffffffffffffffffffffffffffffffffffffff16815260200190600101908083116102b0575b5050505050905090565b60008160108110151561031357fe5b016000915054906101000a900473ffffffffffffffffffffffffffffffffffffffff1681565b6000808260108110151561034957fe5b0160009054906101000a900473ffffffffffffffffffffffffffffffffffffffff169050919050565b60008082101580156103855750600f8211155b151561039057600080fd5b336000836010811015156103a057fe5b0160006101000a81548173ffffffffffffffffffffffffffffffffffffffff021916908373ffffffffffffffffffffffffffffffffffffffff160217905550819050919050565b600081565b60008082101580156103ff5750600f8211155b151561040a57600080fd5b3373ffffffffffffffffffffffffffffffffffffffff1660008360108110151561043057fe5b0160009054906101000a900473ffffffffffffffffffffffffffffffffffffffff1673ffffffffffffffffffffffffffffffffffffffff1614151561047457600080fd5b6000808360108110151561048457fe5b0160006101000a81548173ffffffffffffffffffffffffffffffffffffffff021916908373ffffffffffffffffffffffffffffffffffffffff160217905550819050919050565b610200604051908101604052806010906020820280388339808201915050905050905600a165627a7a72305820d063315e7eb51842622a4907222ad7c4d643959a7ecd90f67d8ab7aa25521b710029",
  "source": "pragma solidity ^0.4.17;\n\ncontract Adoption {\n    address[16] public adopters;\n    address public constant STORE_WALLET = 0x0000000000000000000000000000000000000000;\n\n    function adopt(uint petId) public returns (uint) {\n        require( petId >= 0 && petId <= 15 );\n        adopters[petId] = msg.sender;\n        return petId;\n    }\n\n    function getAdopters() public view returns (address[16]) {\n        return adopters;\n    }\n\n    function getPetOwnerAddress( uint _petId) public view returns (address) {\n        return adopters[_petId];\n    }\n\n    function returnPet(uint petId) public returns (uint) {\n        require( petId >= 0 && petId <= 15 );\n        require( adopters[petId] == msg.sender );\n        adopters[petId] = STORE_WALLET;\n        return petId;\n    }\n}\n",
  "sourcePath": "/Users/rhome/Documents/pet-shop-react/contracts/Adoption.sol",
  "compiler": {
    "name": "solc",
    "version": "0.4.24+commit.e67f0147.Emscripten.clang"
  },
  "schemaVersion": "2.0.1",
  "updatedAt": "2018-08-06T18:46:53.841Z"
}